{
  "contractName": "SimpleContract",
  "abi": [
    {
      "inputs": [
        {
          "internalType": "string",
          "name": "_initialMessage",
          "type": "string"
        }
      ],
      "stateMutability": "nonpayable",
      "type": "constructor"
    },
    {
      "inputs": [],
      "name": "message",
      "outputs": [
        {
          "internalType": "string",
          "name": "",
          "type": "string"
        }
      ],
      "stateMutability": "view",
      "type": "function",
      "constant": true
    },
    {
      "inputs": [
        {
          "internalType": "string",
          "name": "_newMessage",
          "type": "string"
        }
      ],
      "name": "setMessage",
      "outputs": [],
      "stateMutability": "nonpayable",
      "type": "function"
    }
  ],
  "bytecode": "0x608060405234801561001057600080fd5b5060405161078238038061078283398101604081905261002f916100e0565b600081511161009e576040517f08c379a000000000000000000000000000000000000000000000000000000000815260206004820152601f60248201527f496e697469616c206d6573736167652063616e6e6f7420626520656d70747900604482015260640160405180910390fd5b60006100aa828261024b565b5050610310565b7f4e487b7100000000000000000000000000000000000000000000000000000000600052604160045260246000fd5b600060208083850312156100f357600080fd5b82516001604060020a038082111561010a57600080fd5b818501915085601f83011261011e57600080fd5b815181811115610130576101306100b1565b604051601f8201601f19908116603f01168101908382118183101715610158576101586100b1565b81604052828152888684870101111561017057600080fd5b600093505b828410156101925784840186015181850187015292850192610175565b600086848301015280965050505050505092915050565b6002810460018216806101bd57607f821691505b6020821081036101f6577f4e487b7100000000000000000000000000000000000000000000000000000000600052602260045260246000fd5b50919050565b601f821115610246576000818152602081206020601f860104810160208610156102235750805b6020601f860104820191505b818110156102425782815560010161022f565b5050505b505050565b81516001604060020a03811115610264576102646100b1565b6102788161027284546101a9565b846101fc565b602080601f8311600181146102b157600084156102955750858301515b60028086026008870290910a6000190419821617865550610242565b600085815260208120601f198616915b828110156102e0578886015182559484019460019091019084016102c1565b508582101561030057878501516008601f88160260020a60001904191681555b5050505050600202600101905550565b6104638061031f6000396000f3fe608060405234801561001057600080fd5b5060043610610052577c01000000000000000000000000000000000000000000000000000000006000350463368b87728114610057578063e21f37ce1461006c575b600080fd5b61006a6100653660046101c6565b61008a565b005b610074610109565b6040516100819190610277565b60405180910390f35b60008151116100f9576040517f08c379a000000000000000000000000000000000000000000000000000000000815260206004820152601b60248201527f4e6577206d6573736167652063616e6e6f7420626520656d7074790000000000604482015260640160405180910390fd5b60006101058282610367565b5050565b60008054610116906102c5565b80601f0160208091040260200160405190810160405280929190818152602001828054610142906102c5565b801561018f5780601f106101645761010080835404028352916020019161018f565b820191906000526020600020905b81548152906001019060200180831161017257829003601f168201915b505050505081565b7f4e487b7100000000000000000000000000000000000000000000000000000000600052604160045260246000fd5b6000602082840312156101d857600080fd5b813567ffffffffffffffff808211156101f057600080fd5b818401915084601f83011261020457600080fd5b81358181111561021657610216610197565b604051601f8201601f19908116603f0116810190838211818310171561023e5761023e610197565b8160405282815287602084870101111561025757600080fd5b826020860160208301376000928101602001929092525095945050505050565b600060208083528351808285015260005b818110156102a457858101830151858201604001528201610288565b506000604082860101526040601f19601f8301168501019250505092915050565b6002810460018216806102d957607f821691505b602082108103610312577f4e487b7100000000000000000000000000000000000000000000000000000000600052602260045260246000fd5b50919050565b601f821115610362576000818152602081206020601f8601048101602086101561033f5750805b6020601f860104820191505b8181101561035e5782815560010161034b565b5050505b505050565b815167ffffffffffffffff81111561038157610381610197565b6103958161038f84546102c5565b84610318565b602080601f8311600181146103ce57600084156103b25750858301515b60028086026008870290910a600019041982161786555061035e565b600085815260208120601f198616915b828110156103fd578886015182559484019460019091019084016103de565b508582101561041d57878501516008601f88160260020a60001904191681555b505050505060020260010190555056fea26469706673582212204337a789304b595532725f795670c1dc70359093758d85d0c4291c9cd844cb0964736f6c63430008150033",
  "immutableReferences": {},
  "source": "pragma solidity ^0.8.21;\n\ncontract SimpleContract {\n    string public message;\n\n    constructor(string memory _initialMessage) {\n        require(bytes(_initialMessage).length > 0, \"Initial message cannot be empty\");\n        message = _initialMessage;\n    }\n\n    function setMessage(string memory _newMessage) public {\n        require(bytes(_newMessage).length > 0, \"New message cannot be empty\");\n        message = _newMessage;\n    }\n}",
  "sourcePath": "/Users/sungwoocho/Desktop/sample/contracts/SimpleContract.sol",
  "compiler": {
    "name": "solc",
    "version": "0.8.21+commit.d9974bed.Emscripten.clang"
  },
  "schemaVersion": "3.4.16",
  "updatedAt": "2025-03-21T05:32:56.789Z",
  "networkType": "ethereum",
  "devdoc": {
    "kind": "dev",
    "methods": {},
    "version": 1
  },
  "userdoc": {
    "kind": "user",
    "methods": {},
    "version": 1
  }
}